{
  "_format": "hh-sol-artifact-1",
  "contractName": "ExampleFeed",
  "sourceName": "contracts/ExampleFeed.sol",
  "abi": [
    {
      "inputs": [
        {
          "internalType": "address",
          "name": "airnodeAddress",
          "type": "address"
        }
      ],
      "stateMutability": "nonpayable",
      "type": "constructor"
    },
    {
      "inputs": [],
      "name": "airnode",
      "outputs": [
        {
          "internalType": "contract IAirnode",
          "name": "",
          "type": "address"
        }
      ],
      "stateMutability": "view",
      "type": "function"
    },
    {
      "inputs": [],
      "name": "airnodeAddress",
      "outputs": [
        {
          "internalType": "address",
          "name": "_airnodeAddress",
          "type": "address"
        }
      ],
      "stateMutability": "view",
      "type": "function"
    },
    {
      "inputs": [
        {
          "internalType": "bytes32",
          "name": "requestId",
          "type": "bytes32"
        },
        {
          "internalType": "uint256",
          "name": "statusCode",
          "type": "uint256"
        },
        {
          "internalType": "int256",
          "name": "data",
          "type": "int256"
        }
      ],
      "name": "fulfill",
      "outputs": [],
      "stateMutability": "nonpayable",
      "type": "function"
    },
    {
      "inputs": [
        {
          "internalType": "bytes32",
          "name": "",
          "type": "bytes32"
        }
      ],
      "name": "fulfilledData",
      "outputs": [
        {
          "internalType": "int256",
          "name": "",
          "type": "int256"
        }
      ],
      "stateMutability": "view",
      "type": "function"
    },
    {
      "inputs": [],
      "name": "getPrice",
      "outputs": [
        {
          "internalType": "int256",
          "name": "",
          "type": "int256"
        }
      ],
      "stateMutability": "view",
      "type": "function"
    },
    {
      "inputs": [
        {
          "internalType": "bytes32",
          "name": "",
          "type": "bytes32"
        }
      ],
      "name": "incomingFulfillments",
      "outputs": [
        {
          "internalType": "bool",
          "name": "",
          "type": "bool"
        }
      ],
      "stateMutability": "view",
      "type": "function"
    },
    {
      "inputs": [
        {
          "internalType": "bytes32",
          "name": "providerId",
          "type": "bytes32"
        },
        {
          "internalType": "bytes32",
          "name": "endpointId",
          "type": "bytes32"
        },
        {
          "internalType": "uint256",
          "name": "requesterInd",
          "type": "uint256"
        },
        {
          "internalType": "address",
          "name": "designatedWallet",
          "type": "address"
        },
        {
          "internalType": "bytes",
          "name": "parameters",
          "type": "bytes"
        }
      ],
      "name": "makeRequest",
      "outputs": [],
      "stateMutability": "nonpayable",
      "type": "function"
    },
    {
      "inputs": [],
      "name": "price",
      "outputs": [
        {
          "internalType": "int256",
          "name": "",
          "type": "int256"
        }
      ],
      "stateMutability": "view",
      "type": "function"
    }
  ],
  "bytecode": "0x608060405234801561001057600080fd5b5060405161074b38038061074b8339818101604052602081101561003357600080fd5b810190808051906020019092919050505080806000806101000a81548173ffffffffffffffffffffffffffffffffffffffff021916908373ffffffffffffffffffffffffffffffffffffffff16021790555050506106b5806100966000396000f3fe608060405234801561001057600080fd5b50600436106100885760003560e01c8063a36ff4d81161005b578063a36ff4d8146101c2578063bd3b93a8146101f6578063d0bdd66c14610238578063dd2ae83f1461026c57610088565b8063406c6d6c1461008d578063969980a4146100cf57806398d5fdca14610186578063a035b1fe146101a4575b600080fd5b6100b9600480360360208110156100a357600080fd5b81019080803590602001909291905050506102b0565b6040518082815260200191505060405180910390f35b610184600480360360a08110156100e557600080fd5b81019080803590602001909291908035906020019092919080359060200190929190803573ffffffffffffffffffffffffffffffffffffffff1690602001909291908035906020019064010000000081111561014057600080fd5b82018360208201111561015257600080fd5b8035906020019184600183028401116401000000008311171561017457600080fd5b90919293919293905050506102c8565b005b61018e61045d565b6040518082815260200191505060405180910390f35b6101ac610467565b6040518082815260200191505060405180910390f35b6101ca61046d565b604051808273ffffffffffffffffffffffffffffffffffffffff16815260200191505060405180910390f35b6102366004803603606081101561020c57600080fd5b81019080803590602001909291908035906020019092919080359060200190929190505050610491565b005b610240610636565b604051808273ffffffffffffffffffffffffffffffffffffffff16815260200191505060405180910390f35b6102986004803603602081101561028257600080fd5b810190808035906020019092919050505061065f565b60405180821515815260200191505060405180910390f35b60026020528060005260406000206000915090505481565b60008060009054906101000a900473ffffffffffffffffffffffffffffffffffffffff1673ffffffffffffffffffffffffffffffffffffffff1663dce9c276888888883063bd3b93a860e01b8a8a6040518963ffffffff1660e01b8152600401808981526020018881526020018781526020018673ffffffffffffffffffffffffffffffffffffffff1681526020018573ffffffffffffffffffffffffffffffffffffffff168152602001847bffffffffffffffffffffffffffffffffffffffffffffffffffffffff19168152602001806020018281038252848482818152602001925080828437600081840152601f19601f8201169050808301925050509950505050505050505050602060405180830381600087803b1580156103ec57600080fd5b505af1158015610400573d6000803e3d6000fd5b505050506040513d602081101561041657600080fd5b81019080805190602001909291905050509050600180600083815260200190815260200160002060006101000a81548160ff02191690831515021790555050505050505050565b6000600354905090565b60035481565b60008054906101000a900473ffffffffffffffffffffffffffffffffffffffff1681565b60008054906101000a900473ffffffffffffffffffffffffffffffffffffffff1673ffffffffffffffffffffffffffffffffffffffff163373ffffffffffffffffffffffffffffffffffffffff1614610552576040517f08c379a000000000000000000000000000000000000000000000000000000000815260040180806020018281038252601f8152602001807f43616c6c6572206e6f7420746865204169726e6f646520636f6e74726163740081525060200191505060405180910390fd5b6001600084815260200190815260200160002060009054906101000a900460ff166105e5576040517f08c379a00000000000000000000000000000000000000000000000000000000081526004018080602001828103825260148152602001807f4e6f20737563682072657175657374206d61646500000000000000000000000081525060200191505060405180910390fd5b6001600084815260200190815260200160002060006101000a81549060ff0219169055600082141561063157806002600085815260200190815260200160002081905550806003819055505b505050565b60008060009054906101000a900473ffffffffffffffffffffffffffffffffffffffff16905090565b60016020528060005260406000206000915054906101000a900460ff168156fea264697066735822122017d9c1fd3a27be0260fb7ca624f4de5707e8b16968fdd989ab3e06aead06a8d864736f6c634300060c0033",
  "linkReferences": {},
  "deployedLinkReferences": {}
}